{
  "_format": "hh-sol-artifact-1",
  "contractName": "WavePortal",
  "sourceName": "contracts/Waveportal.sol",
  "abi": [
    {
      "inputs": [],
      "stateMutability": "nonpayable",
      "type": "constructor"
    },
    {
      "inputs": [
        {
          "internalType": "uint256",
          "name": "",
          "type": "uint256"
        }
      ],
      "name": "cryptoCounts",
      "outputs": [
        {
          "internalType": "uint256",
          "name": "",
          "type": "uint256"
        }
      ],
      "stateMutability": "view",
      "type": "function"
    },
    {
      "inputs": [
        {
          "internalType": "uint256",
          "name": "",
          "type": "uint256"
        }
      ],
      "name": "cryptoNames",
      "outputs": [
        {
          "internalType": "string",
          "name": "",
          "type": "string"
        }
      ],
      "stateMutability": "view",
      "type": "function"
    },
    {
      "inputs": [],
      "name": "getCryptos",
      "outputs": [
        {
          "internalType": "string[]",
          "name": "",
          "type": "string[]"
        },
        {
          "internalType": "uint256[]",
          "name": "",
          "type": "uint256[]"
        }
      ],
      "stateMutability": "view",
      "type": "function"
    },
    {
      "inputs": [],
      "name": "getTotalWaves",
      "outputs": [
        {
          "internalType": "uint256",
          "name": "",
          "type": "uint256"
        }
      ],
      "stateMutability": "view",
      "type": "function"
    },
    {
      "inputs": [
        {
          "internalType": "string",
          "name": "_crypto",
          "type": "string"
        }
      ],
      "name": "wave",
      "outputs": [],
      "stateMutability": "nonpayable",
      "type": "function"
    }
  ],
  "bytecode": "0x60806040523480156200001157600080fd5b506200005d6040518060400160405280601581526020017f4920616d206120736d61727420636f6e747261637400000000000000000000008152506200006360201b6200074c1760201c565b620001f7565b62000103816040516024016200007a919062000170565b6040516020818303038152906040527f41304fac000000000000000000000000000000000000000000000000000000007bffffffffffffffffffffffffffffffffffffffffffffffffffffffff19166020820180517bffffffffffffffffffffffffffffffffffffffffffffffffffffffff83818316178352505050506200010660201b60201c565b50565b60008151905060006a636f6e736f6c652e6c6f679050602083016000808483855afa5050505050565b60006200013c8262000194565b6200014881856200019f565b93506200015a818560208601620001b0565b6200016581620001e6565b840191505092915050565b600060208201905081810360008301526200018c81846200012f565b905092915050565b600081519050919050565b600082825260208201905092915050565b60005b83811015620001d0578082015181840152602081019050620001b3565b83811115620001e0576000848401525b50505050565b6000601f19601f8301169050919050565b61123480620002076000396000f3fe608060405234801561001057600080fd5b50600436106100575760003560e01c80630ac81f081461005c578063449d46c01461007b5780639a2cdc0814610097578063ea2a3b1c146100b5578063f2ce87c9146100e5575b600080fd5b610064610115565b604051610072929190610dbb565b60405180910390f35b61009560048036038101906100909190610bb3565b6103fc565b005b61009f610631565b6040516100ac9190610eb9565b60405180910390f35b6100cf60048036038101906100ca9190610bf4565b61067c565b6040516100dc9190610eb9565b60405180910390f35b6100ff60048036038101906100fa9190610bf4565b6106a0565b60405161010c9190610df2565b60405180910390f35b6060806101566040518060400160405280601581526020017f42656c6f77206172652074686520726573756c7473000000000000000000000081525061074c565b60005b6001805490508110156102ca576102b66040518060400160405280600681526020017f25733a2025640000000000000000000000000000000000000000000000000000815250600183815481106101d9577f4e487b7100000000000000000000000000000000000000000000000000000000600052603260045260246000fd5b9060005260206000200180546101ee9061109d565b80601f016020809104026020016040519081016040528092919081815260200182805461021a9061109d565b80156102675780601f1061023c57610100808354040283529160200191610267565b820191906000526020600020905b81548152906001019060200180831161024a57829003601f168201915b5050505050600284815481106102a6577f4e487b7100000000000000000000000000000000000000000000000000000000600052603260045260246000fd5b90600052602060002001546107e5565b6001816102c39190610fc9565b9050610159565b506001600281805480602002602001604051908101604052809291908181526020016000905b8282101561039c57838290600052602060002001805461030f9061109d565b80601f016020809104026020016040519081016040528092919081815260200182805461033b9061109d565b80156103885780601f1061035d57610100808354040283529160200191610388565b820191906000526020600020905b81548152906001019060200180831161036b57829003601f168201915b5050505050815260200190600101906102f0565b505050509150808054806020026020016040519081016040528092919081815260200182805480156103ed57602002820191906000526020600020905b8154815260200190600101908083116103d9575b50505050509050915091509091565b600160008082825461040e9190610fc9565b925050819055506104546040518060400160405280600d81526020017f257320686173207761766564210000000000000000000000000000000000000081525033610884565b60008151111561062e57600061053b6001805480602002602001604051908101604052809291908181526020016000905b828210156105315783829060005260206000200180546104a49061109d565b80601f01602080910402602001604051908101604052809291908181526020018280546104d09061109d565b801561051d5780601f106104f25761010080835404028352916020019161051d565b820191906000526020600020905b81548152906001019060200180831161050057829003601f168201915b505050505081526020019060010190610485565b5050505083610920565b90507fffffffffffffffffffffffffffffffffffffffffffffffffffffffffffffffff81146105c5576001600282815481106105a0577f4e487b7100000000000000000000000000000000000000000000000000000000600052603260045260246000fd5b9060005260206000200160008282546105b99190610fc9565b9250508190555061062c565b600182908060018154018082558091505060019003906000526020600020016000909190919091509080519060200190610600929190610a93565b506002600190806001815401808255809150506001900390600052602060002001600090919091909150555b505b50565b60006106746040518060400160405280601781526020017f5765206861766520256420746f74616c207761766573210000000000000000008152506000546109ce565b600054905090565b6002818154811061068c57600080fd5b906000526020600020016000915090505481565b600181815481106106b057600080fd5b9060005260206000200160009150905080546106cb9061109d565b80601f01602080910402602001604051908101604052809291908181526020018280546106f79061109d565b80156107445780601f1061071957610100808354040283529160200191610744565b820191906000526020600020905b81548152906001019060200180831161072757829003601f168201915b505050505081565b6107e2816040516024016107609190610df2565b6040516020818303038152906040527f41304fac000000000000000000000000000000000000000000000000000000007bffffffffffffffffffffffffffffffffffffffffffffffffffffffff19166020820180517bffffffffffffffffffffffffffffffffffffffffffffffffffffffff8381831617835250505050610a6a565b50565b61087f8383836040516024016107fd93929190610e44565b6040516020818303038152906040527ff362ca59000000000000000000000000000000000000000000000000000000007bffffffffffffffffffffffffffffffffffffffffffffffffffffffff19166020820180517bffffffffffffffffffffffffffffffffffffffffffffffffffffffff8381831617835250505050610a6a565b505050565b61091c828260405160240161089a929190610e14565b6040516020818303038152906040527f319af333000000000000000000000000000000000000000000000000000000007bffffffffffffffffffffffffffffffffffffffffffffffffffffffff19166020820180517bffffffffffffffffffffffffffffffffffffffffffffffffffffffff8381831617835250505050610a6a565b5050565b600080600090505b83518110156109a3578280519060200120848281518110610972577f4e487b7100000000000000000000000000000000000000000000000000000000600052603260045260246000fd5b602002602001015180519060200120141561099057809150506109c8565b808061099b90611100565b915050610928565b507fffffffffffffffffffffffffffffffffffffffffffffffffffffffffffffffff90505b92915050565b610a6682826040516024016109e4929190610e89565b6040516020818303038152906040527f9710a9d0000000000000000000000000000000000000000000000000000000007bffffffffffffffffffffffffffffffffffffffffffffffffffffffff19166020820180517bffffffffffffffffffffffffffffffffffffffffffffffffffffffff8381831617835250505050610a6a565b5050565b60008151905060006a636f6e736f6c652e6c6f679050602083016000808483855afa5050505050565b828054610a9f9061109d565b90600052602060002090601f016020900481019282610ac15760008555610b08565b82601f10610ada57805160ff1916838001178555610b08565b82800160010185558215610b08579182015b82811115610b07578251825591602001919060010190610aec565b5b509050610b159190610b19565b5090565b5b80821115610b32576000816000905550600101610b1a565b5090565b6000610b49610b4484610ef9565b610ed4565b905082815260208101848484011115610b6157600080fd5b610b6c84828561105b565b509392505050565b600082601f830112610b8557600080fd5b8135610b95848260208601610b36565b91505092915050565b600081359050610bad816111e7565b92915050565b600060208284031215610bc557600080fd5b600082013567ffffffffffffffff811115610bdf57600080fd5b610beb84828501610b74565b91505092915050565b600060208284031215610c0657600080fd5b6000610c1484828501610b9e565b91505092915050565b6000610c298383610d2b565b905092915050565b6000610c3d8383610d9d565b60208301905092915050565b610c528161101f565b82525050565b6000610c6382610f4a565b610c6d8185610f85565b935083602082028501610c7f85610f2a565b8060005b85811015610cbb5784840389528151610c9c8582610c1d565b9450610ca783610f6b565b925060208a01995050600181019050610c83565b50829750879550505050505092915050565b6000610cd882610f55565b610ce28185610f96565b9350610ced83610f3a565b8060005b83811015610d1e578151610d058882610c31565b9750610d1083610f78565b925050600181019050610cf1565b5085935050505092915050565b6000610d3682610f60565b610d408185610fa7565b9350610d5081856020860161106a565b610d59816111d6565b840191505092915050565b6000610d6f82610f60565b610d798185610fb8565b9350610d8981856020860161106a565b610d92816111d6565b840191505092915050565b610da681611051565b82525050565b610db581611051565b82525050565b60006040820190508181036000830152610dd58185610c58565b90508181036020830152610de98184610ccd565b90509392505050565b60006020820190508181036000830152610e0c8184610d64565b905092915050565b60006040820190508181036000830152610e2e8185610d64565b9050610e3d6020830184610c49565b9392505050565b60006060820190508181036000830152610e5e8186610d64565b90508181036020830152610e728185610d64565b9050610e816040830184610dac565b949350505050565b60006040820190508181036000830152610ea38185610d64565b9050610eb26020830184610dac565b9392505050565b6000602082019050610ece6000830184610dac565b92915050565b6000610ede610eef565b9050610eea82826110cf565b919050565b6000604051905090565b600067ffffffffffffffff821115610f1457610f136111a7565b5b610f1d826111d6565b9050602081019050919050565b6000819050602082019050919050565b6000819050602082019050919050565b600081519050919050565b600081519050919050565b600081519050919050565b6000602082019050919050565b6000602082019050919050565b600082825260208201905092915050565b600082825260208201905092915050565b600082825260208201905092915050565b600082825260208201905092915050565b6000610fd482611051565b9150610fdf83611051565b9250827fffffffffffffffffffffffffffffffffffffffffffffffffffffffffffffffff0382111561101457611013611149565b5b828201905092915050565b600061102a82611031565b9050919050565b600073ffffffffffffffffffffffffffffffffffffffff82169050919050565b6000819050919050565b82818337600083830152505050565b60005b8381101561108857808201518184015260208101905061106d565b83811115611097576000848401525b50505050565b600060028204905060018216806110b557607f821691505b602082108114156110c9576110c8611178565b5b50919050565b6110d8826111d6565b810181811067ffffffffffffffff821117156110f7576110f66111a7565b5b80604052505050565b600061110b82611051565b91507fffffffffffffffffffffffffffffffffffffffffffffffffffffffffffffffff82141561113e5761113d611149565b5b600182019050919050565b7f4e487b7100000000000000000000000000000000000000000000000000000000600052601160045260246000fd5b7f4e487b7100000000000000000000000000000000000000000000000000000000600052602260045260246000fd5b7f4e487b7100000000000000000000000000000000000000000000000000000000600052604160045260246000fd5b6000601f19601f8301169050919050565b6111f081611051565b81146111fb57600080fd5b5056fea264697066735822122040ffbe5fa408fea405f31d8106885a89dd07370982518403d8f98c9eb9172ea764736f6c63430008040033",
  "linkReferences": {},
  "deployedLinkReferences": {}
}